:1000000032EF0EF00000000000EF00F000000000F2
:0A0010000000000000000000F3D71C
:0A001C00530E0D6E0D2EFED71200DC
:10002600240E0C6EB50E0D6E0D2EFED70C2EFCD7C3
:06003600000000001200B2
:0C003C00000000000000000000001200A6
:100048000401D2BF02D08A9E01D08A8ED2BD02D0CE
:100058008A9C01D08A8CD2BB02D08A9A01D08A8A23
:10006800D2B902D08A9801D08A88BBB302D08A82DA
:1000780001D08A928A80DEDF8A90D2B702D08A9E27
:1000880001D08A8ED2B502D08A9C01D08A8CD2B394
:1000980002D08A9A01D08A8AD2B102D08A9801D035
:1000A8008A88BBB302D08A8201D08A928A80C2DF52
:0E00B8008A90BBA302D0B3DF01D0ACDF1200F0
:0E00C6000401BB93D1C4D2F4BCDFBB83120093
:1000D400040E0C6E3A0E0D6E0D2EFED70C2EFCD7B0
:0400E4000000120006
:1000E80010D0800E0401CA6F1AD0C00ECA6F17D084
:1000F800940ECA6F14D0D40ECA6F11D0800ECA6F76
:100108000ED00401CA51010AECE0CA51020AEDE01E
:10011800CA51030AEDE0CA51040AEDE0EFD7CB0556
:10012800006ECA51002600C0CAF4BB8300C0D2F4D6
:0E01380087DFBB93CCC4D2F483DFBB831200FD
:1001460010D0800E0401CA6F1AD0C00ECA6F17D025
:10015600940ECA6F14D0D40ECA6F11D0800ECA6F17
:100166000ED00401CA51010AECE0CA51020AEDE0C0
:10017600CA51030AEDE0CA51040AEDE0EFD7CB05F8
:10018600006ECA51002600C0CAF400C0D2F459DF7E
:10019600BB93CE6BCE51CC25E96E000ECD21EA6E17
:1001A600EE520BE0CE51CC25E96E000ECD21EA6E63
:0E01B600EECFD1F485DFCE2BEDD7BB83120048
:1001C4000401D06BCCC401F0010E006E015004E0B8
:1001D40000360090FF0FFBD700C0CFF4CAC4E9FF7C
:1001E400CBC4EAFF0050EE14016E0152010ED8A4F4
:1001F400000E006ECE51001A18E0CD51000804E242
:1002040067DF66DFCD07F9D7CAC4E9FFCBC4EAFFCD
:10021400CF51EE14016E0152010ED8A4000E006EEF
:10022400CE51001A02E0FF0ED06FD0C400F01200CD
:100234000401BC6B800EBCBF7F0E006E800E010AF1
:10024400005C02E1F40EBC5D0DE2A00E836E410E73
:100254000C6EEE0E0D6E0D2EFED70C2EFCD700008C
:10026400BC2BE8D7BC6B800EBCBF7F0E006E800E2B
:10027400020A005C02E1A60EBC5D0DE2900E836EE4
:10028400410E0C6EEE0E0D6E0D2EFED70C2EFCD70D
:100294000000BC2BE8D7BC6B800EBCBF7F0E006E89
:1002A400800E010A005C02E1F40EBC5D0DE2A00EBA
:1002B400836E410E0C6EEE0E0D6E0D2EFED70C2EBF
:0A02C400FCD70000BC2BE8D71200A5
:1002CE00010E0401D26FB9DE010ECA6F010ECB6FA3
:1002DE00620ECC6F010ECD6F2FDF020ECA6F010EB4
:1002EE00CB6F580ECC6F000ECD6F26DF060E0B6E49
:1002FE00130E0C6EAD0E0D6E0D2EFED70C2EFCD702
:10030E000B2EFAD700000000830ECA6F0F0ECB6FB4
:10031E00CC6BFA0ECD6F010ECE6F4DDF005213E097
:10032E00010E0301C76F030E0B6E8A0E0C6E550E77
:10033E000D6E0D2EFED70C2EFCD70B2EFAD700000D
:10034E0000000EEF08F0830E0401CA6F0F0ECB6F84
:10035E00010ECC6FC80ECD6F010ECE6F2CDF00528A
:10036E00D8B4F7EF07F0010ED26F67DE010ECA6F39
:10037E00010ECB6F510ECC6F000ECD6FDDDE010E78
:10038E00CA6F080ECB6F6D0ECC6F000ECD6FD4DE24
:10039E00020ECA6F030ECB6F690ECC6F000ECD6FBF
:1003AE00CBDE020ECA6F080ECB6F490ECC6F000E5D
:1003BE00CD6FC2DE070E0B6E580E0C6E590E0D6E03
:1003CE000D2EFED70C2EFCD70B2EFAD700000000F8
:1003DE00830ECA6F0F0ECB6FCC6BFA0ECD6F010E64
:1003EE00CE6FE9DE0052D8B4B3EF06F0120E0B6EEC
:1003FE00C20E0C6E660E0D6E04010D2EFDD70C2E68
:10040E00FBD70B2EF9D70000010ED26F16DE010EB0
:10041E00CA6F030ECB6F260ECC6F000ECD6F8CDE27
:10042E00020ECA6F010ECB6F150ECC6F000ECD6F84
:10043E0083DE830ECA6F0F0ECB6FCC6BFA0ECD6FB1
:10044E00010ECE6FB8DE0052D8B427D2120E0B6E4C
:10045E00C20E0C6E660E0D6E0D2EFED70C2EFCD738
:10046E000B2EFAD70000010ED26FE7DD010ECA6F18
:10047E00020ECB6F3C0ECC6F000ECD6F5DDE020E0A
:10048E00CA6F020ECB6F300ECC6F000ECD6F54DEE6
:10049E00830ECA6F0F0ECB6FCC6BFA0ECD6F010EA3
:1004AE00CE6F89DE0052D8B4F7D0120E0B6EC20E8C
:1004BE000C6E660E0D6E04010D2EFDD70C2EFBD7A5
:1004CE000B2EF9D70000010ED26FB7DD010ECA6FE9
:1004DE00020ECB6F770ECC6F000ECD6F2DDE020E9F
:1004EE00CA6F020ECB6FCC0ECC6F000ECD6F24DE1A
:1004FE00830ECA6F0F0ECB6FCC6BFA0ECD6F010E43
:10050E00CE6F59DE005227E0010ED26F96DD010E3E
:10051E00CA6F020ECB6FBF0ECC6F000ECD6F0CDE0E
:10052E00020ECA6F020ECB6FE50ECC6F000ECD6FB2
:10053E0003DE010E0301976F330E0B6EBB0E0C6EB6
:10054E00DF0E0D6E0D2EFED70C2EFCD70B2EFAD70E
:10055E0000000000A0D0830E0401CA6F0F0ECB6FF7
:10056E00010ECC6FFA0ECD6F010ECE6F24DE00524F
:10057E0027E0010ED26F61DD010ECA6F020ECB6F46
:10058E00D80ECC6F000ECD6FD7DD020ECA6F020EE5
:10059E00CB6FB40ECC6F000ECD6FCEDD020E03010D
:1005AE00976F330E0B6EBB0E0C6EDF0E0D6E0D2E97
:1005BE00FED70C2EFCD70B2EFAD7000000006BD006
:1005CE00830E0401CA6F0F0ECB6F020ECC6FFA0EA4
:1005DE00CD6F010ECE6FEFDD005227E0010ED26F10
:1005EE002CDD010ECA6F020ECB6F8F0ECC6F000E7C
:1005FE00CD6FA2DD020ECA6F020ECB6F840ECC6FD2
:10060E00000ECD6F99DD030E0301976F330E0B6E47
:10061E00BB0E0C6EDF0E0D6E0D2EFED70C2EFCD704
:10062E000B2EFAD70000000036D0830E0401CA6FDD
:10063E000F0ECB6F030ECC6FFA0ECD6F010ECE6F79
:10064E00BADD005227E0010ED26FF7DC010ECA6F41
:10065E00020ECB6FA70ECC6F000ECD6F6DDD020EAE
:10066E00CA6F020ECB6F9C0ECC6F000ECD6F64DD89
:10067E00040E0301976F330E0B6EBB0E0C6EDF0E66
:10068E000D6E0D2EFED70C2EFCD70B2EFAD70000BA
:10069E00000001D00AD700D1830E0401CA6F0F0EDD
:1006AE00CB6F010ECC6FFA0ECD6F010ECE6F83DDC8
:1006BE000052D8B4F0D0120E0B6EC20E0C6E660E37
:1006CE000D6E0D2EFED70C2EFCD70B2EFAD700007A
:1006DE00010ED26FB2DC010ECA6F020ECB6FAF0EDF
:1006EE00CC6F010ECD6F28DD020ECA6F010ECB6FDF
:1006FE00A30ECC6F020ECD6F1FDD830ECA6F0F0ED1
:10070E00CB6FCC6BFA0ECD6F010ECE6F54DD005257
:10071E0026E0010ED26F91DC010ECA6F020ECB6F76
:10072E00960ECC6F020ECD6F07DD020ECA6F020E53
:10073E00CB6FC00ECC6F020ECD6FFEDC010E2D6F97
:10074E00330E0B6EBB0E0C6EDF0E0D6E0D2EFED726
:10075E000C2EFCD70B2EFAD7000000009BD0830E78
:10076E00CA6F0F0ECB6F010ECC6FFA0ECD6F010E4E
:10077E00CE6F21DD005226E0010ED26F5EDC010E3F
:10078E00CA6F020ECB6FB30ECC6F020ECD6FD4DCE0
:10079E00020ECA6F020ECB6F8D0ECC6F020ECD6F96
:1007AE00CBDC020E2D6F330E0B6EBB0E0C6EDF0EFE
:1007BE000D6E0D2EFED70C2EFCD70B2EFAD7000089
:1007CE00000068D0830ECA6F0F0ECB6F020ECC6F77
:1007DE00FA0ECD6F010ECE6FEEDC005226E0010E4A
:1007EE00D26F2BDC010ECA6F020ECB6F6A0ECC6F6E
:1007FE00020ECD6FA1DC020ECA6F020ECB6F610E20
:10080E00CC6F020ECD6F98DC030E2D6F330E0B6E78
:10081E00BB0E0C6EDF0E0D6E0D2EFED70C2EFCD702
:10082E000B2EFAD70000000035D0830ECA6F0F0EC4
:10083E00CB6F030ECC6FFA0ECD6F010ECE6FBBDCFD
:10084E00005227E0010ED26F24EC00F0010ECA6FA9
:10085E00020ECB6F800ECC6F020ECD6F6DDC020ED2
:10086E00CA6F020ECB6F770ECC6F020ECD6F64DCAB
:10087E00040E2D6F330E0B6EBB0E0C6EDF0E0D6E57
:10088E000D2EFED70C2EFCD70B2EFAD70000000033
:10089E0001D011D701D0DAD55ED20401830ECA6F12
:1008AE000F0ECB6F010ECC6FFA0ECD6F010ECE6F09
:1008BE0082DC0052D8B44DD2120E0B6EC20E0C6EEC
:1008CE00660E0D6E04010D2EFDD70C2EFBD70B2ED2
:1008DE00F9D70000010ED26F24EC00F0010ECA6FA2
:1008EE00020ECB6FC90ECC6F020ECD6F25DC020E41
:1008FE00CA6F030ECB6F1E0ECC6F030ECD6F1CDCBA
:10090E00830ECA6F0F0ECB6FCC6BFA0ECD6F010E2E
:10091E00CE6F51DC0052D8B401D1120E0B6EC20E46
:10092E000C6E660E0D6E0D2EFED70C2EFCD70B2EFA
:10093E00FAD70000010ED26F24EC00F0010ECA6F40
:10094E00020ECB6F110ECC6F030ECD6FA3EC00F029
:10095E00020ECA6F010ECB6F370ECC6F030ECD6F2A
:10096E00A3EC00F0830ECA6F0F0ECB6FCC6BFA0E9A
:10097E00CD6F010ECE6F1FDC005229E0010ED26F3B
:10098E0024EC00F0010ECA6F020ECB6F290ECC6F55
:10099E00030ECD6FA3EC00F0020ECA6F030ECB6FE9
:1009AE00070ECC6F030ECD6FA3EC00F0010E486F57
:1009BE00330E0B6EBB0E0C6EDF0E0D6E0D2EFED7B4
:1009CE000C2EFCD70B2EFAD700000000A6D0830EFB
:1009DE00CA6F0F0ECB6F010ECC6FFA0ECD6F010EDC
:1009EE00CE6FE2EC00F0005229E0010ED26F24EC43
:1009FE0000F0010ECA6F020ECB6FE10ECC6F020E2D
:100A0E00CD6FA3EC00F0020ECA6F030ECB6FD70EA4
:100A1E00CC6F020ECD6FA3EC00F0020E486F330EBA
:100A2E000B6EBB0E0C6EDF0E0D6E0D2EFED70C2E4A
:100A3E00FCD70B2EFAD7000000006FD0830ECA6FC2
:100A4E000F0ECB6F020ECC6FFA0ECD6F010ECE6F66
:100A5E00E2EC00F0005229E0010ED26F24EC00F01F
:100A6E00010ECA6F020ECB6FF90ECC6F020ECD6F58
:100A7E00A3EC00F0020ECA6F030ECB6FEF0ECC6F1D
:100A8E00020ECD6FA3EC00F0030E486F330E0B6E0B
:100A9E00BB0E0C6EDF0E0D6E0D2EFED70C2EFCD780
:100AAE000B2EFAD70000000038D0830ECA6F0F0E3F
:100ABE00CB6F030ECC6FFA0ECD6F010ECE6FE2EC44
:100ACE0000F0005229E0010ED26F24EC00F0010E6E
:100ADE00CA6F020ECB6F000ECC6F020ECD6FA3EC61
:100AEE0000F0020ECA6F030ECB6FF60ECC6F010E26
:100AFE00CD6FA3EC00F0040E486F330E0B6EBB0EE1
:100B0E000C6EDF0E0D6E0D2EFED70C2EFCD70B2E9F
:100B1E00FAD70000000001D000D71AD1830ECA6F99
:100B2E000F0ECB6F010ECC6FFA0ECD6F010ECE6F86
:100B3E00E2EC00F00052D8B40AD1120E0B6EC20EC7
:100B4E000C6E660E0D6E04010D2EFDD70C2EFBD70E
:100B5E000B2EF9D70000010ED26F24EC00F0010E1F
:100B6E00CA6F020ECB6F1E0ECC6F020ECD6FA3ECB2
:100B7E0000F0020ECA6F010ECB6F0E0ECC6F020E7E
:100B8E00CD6FA3EC00F0830ECA6F0F0ECB6FCC6B44
:100B9E00FA0ECD6F010ECE6FE2EC00F000522AE09D
:100BAE00010ED26F24EC00F0010ECA6F020ECB6F55
:100BBE00E80ECC6F010ECD6FA3EC00F0020ECA6FE3
:100BCE00030ECB6FC80ECC6F010ECD6FA3EC00F0F1
:100BDE00010E0001F06F330E0B6EBB0E0C6EDF0EAE
:100BEE000D6E0D2EFED70C2EFCD70B2EFAD7000055
:100BFE000000ACD0830E0401CA6F0F0ECB6F010E36
:100C0E00CC6FFA0ECD6F010ECE6FE2EC00F00052FB
:100C1E002AE0010ED26F24EC00F0010ECA6F020E14
:100C2E00CB6FBA0ECC6F010ECD6FA3EC00F0020E9F
:100C3E00CA6F030ECB6FDF0ECC6F010ECD6FA3EC20
:100C4E0000F0020E0001F06F330E0B6EBB0E0C6E39
:100C5E00DF0E0D6E0D2EFED70C2EFCD70B2EFAD7F7
:100C6E000000000073D0830E0401CA6F0F0ECB6F0D
:100C7E00020ECC6FFA0ECD6F010ECE6FE2EC00F0CD
:100C8E0000522AE0010ED26F24EC00F0010ECA6F62
:100C9E00020ECB6FD10ECC6F010ECD6FA3EC00F018
:100CAE00020ECA6F030ECB6F2A0ECC6F020ECD6FE3
:100CBE00A3EC00F0030E0001F06F330E0B6EBB0EB3
:100CCE000C6EDF0E0D6E0D2EFED70C2EFCD70B2EDE
:100CDE00FAD7000000003AD0830E0401CA6F0F0E3F
:100CEE00CB6F030ECC6FFA0ECD6F010ECE6FE2EC12
:100CFE0000F000522AE0010ED26F24EC00F0010E3B
:100D0E00CA6F020ECB6F3F0ECC6F020ECD6FA3ECEF
:100D1E0000F0020ECA6F030ECB6F360ECC6F020EB2
:100D2E00CD6FA3EC00F0040E0001F06F330E0B6ECE
:100D3E00BB0E0C6EDF0E0D6E0D2EFED70C2EFCD7DD
:100D4E000B2EFAD70000000001D0F7D601D0B4D593
:100D5E0002D0FDEF01F044D1830E0401CA6F0F0ED5
:100D6E00CB6F010ECC6FFA0ECD6F010ECE6FE2EC93
:100D7E0000F00052D8B432D1300EBE6F000EBF6FED
:100D8E00300EC06F000EC16F300EC26F000EC36FFB
:100D9E00300EC46F000EC56FC66BC76BC86BC96BC8
:100DAE00BB95BB97BB99BB9B010ED26F24EC00F099
:100DBE00010ECA6F020ECB6F520ECC6F020ECD6FAC
:100DCE00A3EC00F0020ECA6F080ECB6F4D0ECC6F67
:100DDE00020ECD6FA3EC00F0830ECA6F0F0ECB6F19
:100DEE00CC6B960ECD6F010ECE6FE2EC00F0005282
:100DFE000AE0BBB508D0310EBE6F000EBF6FBB75DB
:100E0E00800EC66FA2D0830ECA6F0F0ECB6FCC6B47
:100E1E00960ECD6F010ECE6FE2EC00F0005209E09F
:100E2E00BBA507D0300EBE6F000EBF6FBB75C66B75
:100E3E008CD0830ECA6F0F0ECB6F010ECC6F960E39
:100E4E00CD6F010ECE6FE2EC00F000520AE0BBB7A0
:100E5E0008D0310EC06F000EC16FBB77400EC76F4A
:100E6E0074D0830ECA6F0F0ECB6F010ECC6F960E21
:100E7E00CD6F010ECE6FE2EC00F0005209E0BBA781
:100E8E0007D0300EC06F000EC16FBB77C76B5DD041
:100E9E00830ECA6F0F0ECB6F020ECC6F960ECD6FF8
:100EAE00010ECE6FE2EC00F000520AE0BBB908D0A2
:100EBE00310EC26F000EC36FBB79200EC86F45D0C6
:100ECE00830ECA6F0F0ECB6F020ECC6F960ECD6FC8
:100EDE00010ECE6FE2EC00F0005209E0BBA907D084
:100EEE00300EC26F000EC36FBB79C86B2ED0830E4F
:100EFE00CA6F0F0ECB6F030ECC6F960ECD6F010E19
:100F0E00CE6FE2EC00F000520AE0BBBB08D0310E0F
:100F1E00C46F000EC56FBB7B100EC96F16D0830E4B
:100F2E00CA6F0F0ECB6F030ECC6F960ECD6F010EE8
:100F3E00CE6FE2EC00F0005208E0BBAB06D0300EF4
:100F4E00C46F000EC56FBB7BC96BC751C6250301AD
:100F5E005C6F0401C951C825006E005003015C2767
:100F6E00020E0401CA6F040ECB6FBEC4CCF474EC37
:100F7E0000F0020ECA6F050ECB6FC0C4CCF474EC39
:100F8E0000F0020ECA6F060ECB6FC2C4CCF474EC26
:100F9E0000F0020ECA6F070ECB6FC4C4CCF474EC13
:100FAE0000F0040E0B6ECF0E0C6E010E0D6E0D2E9C
:100FBE00FED70C2EFCD70B2EFAD700000000820EA7
:100FCE00CA6F0F0ECB6FCC6BFA0ECD6F010ECE6FBC
:100FDE00E2EC00F00052D8B4E7D602D0BAEF01F03E
:100FEE000301C751000A13E15C51000A10E1975149
:100FFE00000A0DE104012D51000A09E14851000AD1
:10100E0006E10001F051000A02E167EF01F0120063
:10101E00016A026A800E0218006E800E005C02E108
:10102E00040E015C3BE2036A046A800E0418006E33
:10103E00800E005C02E1CA0E035C11E2900E836E1C
:10104E00020E0B6EB40E0C6E0D0E0D6E0D2EFED727
:10105E000C2EFCD70B2EFAD7034A042AE6D7056AC4
:10106E00066A800E0618006E800E005C02E1CA0E43
:10107E00055C11E2600E836E020E0B6EB40E0C6EEA
:10108E000D0E0D6E0D2EFED70C2EFCD70B2EFAD795
:0E109E00054A062AE6D7014A022ABCD71200EC
:1010AC00016A026A800E0218006E800E005C02E17A
:1010BC00040E015C37E2A00E836E036A046A800E94
:1010CC000418006E800E010A005C02E12C0E035C19
:1010DC000CE2410E0C6EEE0E0D6E0D2EFED70C2E8C
:1010EC00FCD70000034A042AEAD7900E836E036AE9
:1010FC00046A800E0418006E800E010A005C02E186
:10110C002C0E035C0CE2410E0C6EEE0E0D6E0D2ED1
:10111C00FED70C2EFCD70000034A042AEAD7014A5A
:06112C00022AC0D71200E8
:101132000201336B800E3319006E800E040A005CCC
:101142003EE2356B800E35BF7F0E006E800E020AC6
:10115200005C02E1580E355D12E2A00E836E020EB3
:101162000B6E450E0C6EA90E0D6E0D2EFED70C2EBB
:10117200FCD70B2EFAD700000000352BE3D7346BD7
:10118200800E34BF7F0E006E800E020A005C02E108
:10119200A80E345D12E2900E836E020E0B6E450EA7
:1011A2000C6EA90E0D6E0D2EFED70C2EFCD70B2E3B
:1011B200FAD700000000342BE3D7332BBBD7120041
:1011C2000900F5CFE6FF0006FBE10106F9E1120096
:1011D200939093929398939A939C939E8A908A92D7
:1011E2008A9E8A9C8A9A8A9813EC00F013EC00F08B
:1011F20013EC00F08A8A8A888A801EEC00F08A90BA
:1012020013EC00F08A801EEC00F08A9013EC00F0E0
:101212008A801EEC00F08A9013EC00F08A988A8093
:101222001EEC00F08A9013EC00F08A801EEC00F0B5
:101232008A908A9A8A8E8A801EEC00F08A9013EC39
:1012420000F08A9E8A888A801EEC00F08A908A9832
:101252008A801EEC00F08A9013EC00F08A801EEC6B
:1012620000F08A908A888A801EEC00F08A9013EC43
:1012720000F08A988A801EEC00F08A908A8E8A8C0E
:101282008A8A8A888A801EEC00F08A9013EC00F029
:061292000401BB83120001
:10129800820E0401CA6F0F0ECB6FCC6BFA0ECD6FA6
:1012A800010ECE6FE2EC00F00052D8B431EF0EF030
:1012B800010ED26F24EC00F067EC01F00301C75176
:1012C800010AD8A409D1010E0401D26F24EC00F060
:1012D800010ECA6F010ECB6FC80ECC6F030ECD6F17
:1012E800A3EC00F0010ECA6F090ECB6FBF0ECC6FD6
:1012F800030ECD6FA3EC00F0020ECA6F010ECB6F88
:10130800B10ECC6F030ECD6FA3EC00F0020ECA6FC6
:10131800090ECB6FB70ECC6F030ECD6FA3EC00F0A8
:10132800060E0B6ED60E0C6E7B0E0D6E0D2EFED7B6
:101338000C2EFCD70B2EFAD700000000830ECA6FC4
:101348000F0ECB6FCC6BFA0ECD6F010ECE6FE2ECA9
:1013580000F0005224E0010ED26F24EC00F0010EE0
:10136800CA6F040ECB6FEE0ECC6F030ECD6FA3ECDD
:1013780000F0020ECA6F050ECB6FF90ECC6F030E8C
:10138800CD6FA3EC00F0D1DE410E0C6EEE0E0D6EAB
:101398000D2EFED70C2EFCD70000836A98D0830E42
:1013A8000401CA6F0F0ECB6F010ECC6FFA0ECD6F12
:1013B800010ECE6FE2EC00F0005225E0010ED26F74
:1013C80024EC00F0010ECA6F040ECB6FE30ECC6F55
:1013D800030ECD6FA3EC00F0020ECA6F040ECB6FA4
:1013E800CE0ECC6F030ECD6FA3EC00F01AEC01F01B
:1013F800410E0C6EEE0E0D6E0D2EFED70C2EFCD788
:101408000000836A64D0830ECA6F0F0ECB6F020E82
:10141800CC6FFA0ECD6F010ECE6FE2EC00F00052E9
:1014280024E0010ED26F24EC00F0010ECA6F040E06
:10143800CB6FD80ECC6F030ECD6FA3EC00F0020E6D
:10144800CA6F040ECB6FA90ECC6F030ECD6FA3EC41
:1014580000F0E1DD410E0C6EEE0E0D6E0D2EFED786
:101468000C2EFCD70000836A32D0830E0401CA6FA9
:101478000F0ECB6F030ECC6FFA0ECD6F010ECE6F31
:10148800E2EC00F0005223E0010ED26F24EC00F0F1
:10149800010ECA6F040ECB6F5D0ECC6F030ECD6FBD
:1014A800A3EC00F0020ECA6F040ECB6F680ECC6F6F
:1014B800030ECD6FA3EC00F0F5DD410E0C6EEE0EC1
:1014C8000D6E0D2EFED70C2EFCD70000836A82A06D
:1014D800FAD60301C76BB6D3800E000A006E800EE1
:1014E8005C19005CD8B0B8D00D0E0B6EAF0E0C6E48
:1014F800B60E0D6E0D2EFED70C2EFCD70B2EFAD77E
:101508000000010E0401D26F24EC00F02AD0100E66
:10151800836E8AD0100E836E87D0300E836E84D08F
:10152800400E836E81D0500E836E7ED0700E836E17
:101538007BD0800E836E78D0900E836E75D0A00E0F
:10154800836E72D0B00E836E6FD0C00E836E6CD077
:10155800D00E836E69D0E00E836E66D0F00E836E77
:1015680063D003015C51100AD2E05C51200AD2E03A
:101578005C51300AD2E05C51400AD2E05C51500A1A
:10158800D2E05C51700AD2E0000E5CBFFF0E006E24
:10159800000E001802E1800E5C19CBE0000E5CBF63
:1015A800FF0E006E000E001802E1900E5C19C4E0F8
:1015B800000E5CBFFF0E006E000E001802E1A00EC8
:1015C8005C19BDE0000E5CBFFF0E006E000E001837
:1015D80002E1B00E5C19B6E0000E5CBFFF0E006EB3
:1015E800000E001802E1C00E5C19AFE0000E5CBFEF
:1015F800FF0E006E000E001802E1D00E5C19A8E084
:10160800000E5CBFFF0E006E000E001802E1E00E37
:101618005C19A1E0000E5CBFFF0E006E000E001802
:1016280002E1F00E5C199AE0010E0401CA6F040E83
:10163800CB6F470ECC6F030ECD6FA3EC00F0020EFC
:10164800CA6F050ECB6F520ECC6F030ECD6FA3EC95
:1016580000F082A0E9D7F6D2800E000A006E800E54
:1016680003019719005CD8B0B9D0A8D0010E0401C5
:10167800D26F24EC00F0010ECA6F020ECB6F980EE9
:10168800CC6F030ECD6FA3EC00F0020ECA6F020EF2
:10169800CB6F8C0ECC6F030ECD6FA3EC00F0500E09
:1016A800836E400E0B6E6A0E0C6E970E0D6E0D2E2D
:1016B800FED70C2EFCD70B2EFAD7000000008DD0D9
:1016C8000401010ED26F24EC00F0010ECA6F020E65
:1016D800CB6F700ECC6F030ECD6FA3EC00F0020E33
:1016E800CA6F020ECB6F810ECC6F030ECD6FA3ECC9
:1016F80000F0500E836E7F0E0B6ED40E0C6E310E02
:101708000D6E0D2EFED70C2EFCD70B2EFAD700002F
:10171800000063D00401010ED26F24EC00F0010E2A
:10172800CA6F020ECB6F8E0ECC6F040ECD6FA3EC7A
:1017380000F0020ECA6F020ECB6F830ECC6F040E40
:10174800CD6FA3EC00F0500E836EBF0E0B6E3D0EF6
:101758000C6ECB0E0D6E0D2EFED70C2EFCD70B2E5D
:10176800FAD70000000039D00401010ED26F24EC32
:1017780000F0010ECA6F020ECB6FAA0ECC6F040EDA
:10178800CD6FA3EC00F0020ECA6F020ECB6F9F0E56
:10179800CC6F040ECD6FA3EC00F0500E836EFE0EDE
:1017A8000B6EA70E0C6E650E0D6E0D2EFED70C2E51
:1017B800FCD70B2EFAD7000000000FD00301975179
:1017C800010AD8B453D79751020AD8B479D7975198
:1017D800030AA0E09751040AC7E034D2800E000A39
:1017E800006E800E04012D19005CD8B0B4D0A4D0CE
:1017F800010ED26F24EC00F0010ECA6F020ECB6FFF
:101808002E0ECC6F040ECD6FA3EC00F0020ECA6F43
:10181800020ECB6F3F0ECC6F040ECD6FA3EC00F021
:10182800A00E836E400E0B6E6A0E0C6E970E0D6E38
:101838000D2EFED70C2EFCD70B2EFAD70000000079
:1018480089D0010ED26F24EC00F0010ECA6F020E8F
:10185800CB6F020ECC6F040ECD6FA3EC00F0020E1E
:10186800CA6F020ECB6F130ECC6F040ECD6FA3ECB4
:1018780000F0A00E836E7F0E0B6ED40E0C6E310E30
:101888000D6E0D2EFED70C2EFCD70B2EFAD70000AE
:10189800000060D0010ED26F24EC00F0010ECA6F78
:1018A800020ECB6F1C0ECC6F040ECD6FA3EC00F0B4
:1018B800020ECA6F020ECB6F600ECC6F040ECD6F96
:1018C800A3EC00F0A00E836EBF0E0B6E3D0E0C6EE7
:1018D800CB0E0D6E0D2EFED70C2EFCD70B2EFAD785
:1018E8000000000037D0010ED26F24EC00F0010E8A
:1018F800CA6F020ECB6F690ECC6F040ECD6FA3ECCE
:1019080000F0020ECA6F020ECB6F7A0ECC6F040E77
:10191800CD6FA3EC00F0A00E836EFE0E0B6EA70E2B
:101928000C6E650E0D6E0D2EFED70C2EFCD70B2EF1
:10193800FAD7000000000ED02D51010AD8B458D7AC
:101948002D51020AD8B47DD72D51030AA3E02D5199
:10195800040AC9E077D1800E000A006E800E48198B
:10196800005CD8B0B1D0A1D0010ED26F24EC00F049
:10197800010ECA6F020ECB6F490ECC6F040ECD6FED
:10198800A3EC00F0020ECA6F030ECB6F560ECC6F9D
:10199800040ECD6FA3EC00F0900E836E1A0E0B6E42
:1019A8005E0E0C6E6E0E0D6E0D2EFED70C2EFCD735
:1019B8000B2EFAD7000087D0010ED26F24EC00F06E
:1019C800010ECA6F020ECB6F280ECC6F010ECD6FC1
:1019D800A3EC00F0020ECA6F030ECB6F1E0ECC6F85
:1019E800010ECD6FA3EC00F0900E836E330E0B6EDC
:1019F800BB0E0C6EDF0E0D6E0D2EFED70C2EFCD717
:101A08000B2EFAD7000000005ED0010ED26F24EC36
:101A180000F0010ECA6F020ECB6F3F0ECC6F010EA5
:101A2800CD6FA3EC00F0020ECA6F030ECB6F350E1C
:101A3800CC6F010ECD6FA3EC00F0900E836E4D0EAF
:101A48000B6E190E0C6E4F0E0D6E0D2EFED70C2E52
:101A5800FCD70B2EFAD70000000035D0010ED26F4C
:101A680024EC00F0010ECA6F020ECB6F110ECC6F82
:101A7800010ECD6FA3EC00F0020ECA6F030ECB6F00
:101A8800F10ECC6F000ECD6FA3EC00F0900E836EBC
:101A9800660E0B6E760E0C6EC10E0D6E0D2EFED7F9
:101AA8000C2EFCD70B2EFAD70ED04851010AD8B409
:101AB8005BD74851020AD8B47FD74851030AA5E03A
:101AC8004851040ACBE0BED0800E000A006E800E9A
:101AD8000001F019005CD8B0B5D0A5D0010E040102
:101AE800D26F24EC00F0010ECA6F020ECB6F040E09
:101AF800CC6F010ECD6FA3EC00F0020ECA6F030E7F
:101B0800CB6FFB0ECC6F000ECD6FA3EC00F0600E18
:101B1800836E1A0E0B6E5E0E0C6E6E0E0D6E0D2E13
:101B2800FED70C2EFCD70B2EFAD700008BD0040161
:101B3800010ED26F24EC00F0010ECA6F020ECB6FBB
:101B48004C0ECC6F010ECD6FA3EC00F0020ECA6FE5
:101B5800030ECB6F900ECC6F010ECD6FA3EC00F08F
:101B6800600E836E330E0B6EBB0E0C6EDF0E0D6EA9
:101B78000D2EFED70C2EFCD70B2EFAD70000000036
:101B880061D00401010ED26F24EC00F0010ECA6F7F
:101B9800020ECB6F830ECC6F010ECD6FA3EC00F05D
:101BA800020ECA6F030ECB6FA60ECC6F010ECD6F5F
:101BB800A3EC00F0600E836E4D0E0B6E190E0C6ECA
:101BC8004F0E0D6E0D2EFED70C2EFCD70B2EFAD70E
:101BD8000000000037D00401010ED26F24EC00F0A1
:101BE800010ECA6F020ECB6F990ECC6F010ECD6F2E
:101BF800A3EC00F0020ECA6F030ECB6F7A0ECC6F07
:101C0800010ECD6FA3EC00F0600E836E660E0B6EB6
:101C1800760E0C6EC10E0D6E0D2EFED70C2EFCD757
:101C28000B2EFAD70FD00001F051010AD8B456D7BD
:101C3800F051020AD8B47BD7F051030AA2E0F05160
:101C4800040AC9E003015C6BC76B976B04012D6B39
:0C1C58000001F06B0401486B836A12006D
:101C6400DDEC10F00401BB91936A030E946E0F0E29
:101C7400956E816A826A836A0F01386B396B3A6B9D
:101C84003B6BE9EC08F0010ED26F24EC00F00C0E73
:101C9400D26F24EC00F0820E0C6EDD0E0D6E0D2E54
:101CA400FED70C2EFCD700000000010ED26F24ECEE
:101CB40000F0010ECA6F040ECB6F590ECC6F010EEB
:101CC400CD6FA3EC00F0020ECA6F010ECB6F6A0E4B
:101CD400CC6F010ECD6FA3EC00F0BD6B800EBD196F
:101CE400006E800E050A005C0FE20D0E0B6EAF0E47
:101CF4000C6EB60E0D6E0D2EFED70C2EFCD70B2ED1
:101D0400FAD70000BD2BEAD74CEC09F0CED7FFD7A9
:1021BA0010EE15F0A60E006E050E016E140EF66EE8
:0E21CA001D0EF76E000EF86EE1EC08F012002C
:101D1400416E64617220526F746163696F6E6172A7
:011D240000BE
:0A1D250053656C6563696F6E65001D
:0C1D2F004672656E74652054726173008A
:0D1D3B0053656C65632E20416E646172007B
:081D480042696E6172696F00CF
:071D5000496E736972610026
:101D5700496E7369726120496E7374727563616F3E
:011D6700007B
:041D6800412D5A00AF
:0A1D6C00696E7374727563616F0095
:0D1D7600416E646172204672656E746500F6
:0B1D83004672656E7465203435270041
:0D1D8E0053656C65632E20416E6461720028
:0B1D9B004672656E746520363027002C
:0D1DA60053656C65632E20416E6461720010
:0B1DB3004672656E7465203330270017
:0D1DBE0053656C65632E20416E64617200F8
:0C1DCB0031352033302034352036300014
:0D1DD70053656C65632E20416E64617200DF
:0B1DE4004672656E74652031352700E3
:011DEF0000F3
:0A1DF000457371752E20393027006D
:091DFA004469722E2033302700E9
:0D1E0300457865632E20526F7461632E00D8
:0D1E1000457865632E20526F7461632E00CB
:0A1E1D00457371752E20343527003F
:0D1E2700457865632E20526F7461632E00B4
:0A1E3400457371752E20363027002B
:0D1E3E00457865632E20526F7461632E009D
:0D1E4B00457865632E20526F7461632E0090
:091E5800526F626F7A6F72640030
:081E6100526F74696E61730099
:101E6900456E67656E6861726961205546534D001C
:091E79004469722E203930270063
:0D1E8200457865632E20526F7461632E0059
:091E8F004469722E20343527004D
:0D1E9800457865632E20526F7461632E0043
:091EA5004469722E20363027003A
:0B1EAE00416E64617220547261730089
:0E1EB90053656C65632E20526F7461632E00BA
:091EC7004469722E20333027001B
:0E1ED00053656C65632E20526F7461632E00A3
:091EDE004469722E2034352700FE
:0E1EE70053656C65632E20526F7461632E008C
:0A1EF500457371752E203930270067
:0E1EFF0053656C65632E20526F7461632E0074
:101F0D00333027203435272036302720393027002D
:0C1F1D00526F7461632E204469722E0024
:091F29004469722E2036302700B5
:011F320000AE
:011F330000AD
:011F340000AC
:091F35004469722E2039302700A6
:0E1F3E0053656C65632E20526F7461632E0034
:051F4C003030303000D0
:0F1F510053656C65632E20506F736963616F0079
:091F60005472617320343527002E
:0D1F690053656C65632E20416E646172004B
:091F76005472617320363027001B
:0D1F7F0053656C65632E20416E6461720035
:091F8C0054726173203330270008
:0D1F950053656C65632E20416E646172001F
:101FA2003330272034352720363027203930270098
:0D1FB20053656C65632E20416E6461720002
:091FBF00547261732031352700D2
:0E1FC80053656C65632E20526F7461632E00AA
:0A1FD600457371752E203435270085
:0E1FE00053656C65632E20526F7461632E0092
:0A1FEE00457371752E203630270070
:0E1FF80053656C65632E20526F7461632E007A
:0A200600457371752E20333027005A
:0D201000526F7461632E20457371752E00B0
:0B201D00457371752E204469722E007F
:0E20280053656C65632E20526F7461632E0049
:102036003330272034352720363027203930270003
:0B204600457865637574616E646F007F
:0A205100496E7374727563616F00CD
:01205B000084
:0B205C00457865637574616E646F0069
:0820670053656E6F69646500AA
:10206F00457865637574616E646F20416E6461724B
:01207F000060
:0B2080004672656E7465203330270047
:0B208B004672656E7465203135270039
:012096000049
:10209700457865637574616E646F20416E64617223
:0120A7000038
:0820A80043697263756C6F005F
:0620B000436972632E007B
:0820B60053656E6F696465005B
:0820BE00547269616E672E0087
:0120C6000019
:0620C700517561642E005A
:0A20CD00547269616E67756C6F0054
:0B20D700457865637574616E646F00EE
:0B20E200457865637574616E646F00E3
:0B20ED00457865637574616E646F00D8
:0920F800517561647261646F00AE
:10210100457865637574616E646F20416E646172B8
:0121110000CD
:0921120054726173203330270080
:10211B00457865637574616E646F20416E6461729E
:01212B0000B3
:01212C0000B2
:10212D00457865637574616E646F20416E6461728C
:01213D0000A1
:09213E0054726173203135270051
:012147000097
:0D214800457865632E20526F7461632E0090
:0A215500457371752E20333027000A
:09215F005472617320343527002D
:10216800457865637574616E646F20416E64617251
:012178000066
:0921790054726173203630270016
:0B2182004672656E746520343527003E
:10218D00457865637574616E646F20416E6461722C
:01219D000041
:0B219E004672656E7465203630270025
:1021A900457865637574616E646F20416E64617210
:0121B9000025
:020000040030CA
:0D000100231F3CFFBF81FF0FC00FE00F4029
:00000001FF
